:100000000C9434000C9400000C9400000C9400003C
:100010000C9400000C9400000C9400000C94000060
:100020000C9400000C9471000C9400000C940000DF
:100030000C9400000C9400000C9400000C94000040
:100040000C9400000C9400000C9400000C94000030
:100050000C9400000C9400000C9400000C94000020
:100060000C9400000C940000F894EE27EFBBF1E034
:10007000F5BFE5BF8DE0A2E0BB27ED938A95E9F7D8
:1000800080E098E0A0E0B1E0ED930197E9F7E0E0CF
:10009000EEBBEFEFEDBFE8E0EEBFC0E0D3E00C94C5
:1000A0005100E3EAE4BDE1E0E5BDEAE0E7BDEEE1F1
:1000B000E8BD559A569AE9EFE093B300E2E0E09389
:1000C000B000E6E0E093B100E1E0E09370007894E6
:1000D000E8B5EF5FE8BDA8EEB3E00E948600F8CF78
:1000E000FFCFAA93EA93EFB7EA93E0910003EF5FA3
:1000F000E0930003A0910003A23319F4E0E0E09341
:100100000003E991EFBFE991A9911895109639F094
:1001100080EA9FE00197F1F7A8951197C9F7089534
:00000001FF
